:020000040800F2
:1000000018F400209D010008A5010008A7010008C0
:10001000A9010008AB010008AD01000800000000C4
:10002000000000000000000000000000AF01000818
:10003000B101000800000000B301000831130008FE
:10004000B7010008B7010008B7010008B7010008B0
:10005000B7010008B7010008B7010008B7010008A0
:10006000B7010008B7010008B7010008B701000890
:10007000B7010008B7010008B7010008B701000880
:10008000B7010008B7010008B7010008B701000870
:10009000B7010008B7010008B7010008B701000860
:1000A000B7010008B7010008B7010008B701000850
:1000B000B7010008B7010008B7010008B701000840
:1000C000B7010008B7010008B7010008B701000830
:1000D000B70100089D130008B7010008B701000828
:1000E000B7010008B7010008B7010008B701000810
:1000F000B7010008B7010008B7010008B701000800
:10010000B7010008B7010008B7010008B7010008EF
:10011000B7010008B7010008B7010008B7010008DF
:10012000B7010008B7010008B7010008B7010008CF
:10013000B7010008B7010008B7010008B7010008BF
:10014000B7010008B7010008B7010008B7010008AF
:10015000B7010008B7010008CD070008B701000883
:10016000B7010008B7010008B7010008B70100088F
:10017000B7010008B7010008B7010008B70100087F
:10018000B7010008B7010008DFF80CD000F072FAE0
:1001900000480047CD5C000818F40020064880475E
:1001A00006480047FEE7FEE7FEE7FEE7FEE7FEE75C
:1001B000FEE7FEE7FEE7FEE73513000889010008C9
:1001C00000210720ABBE70472DE9F05F05460020F7
:1001D00092469B4688460646814640241BE02846B8
:1001E00041464746224600F020F853465A46C01A78
:1001F000914110D311461846224600F074F82D1A8A
:1002000067EB01084F4622460120002100F06BF801
:1002100017EB00094E41201EA4F10104DFDC484623
:1002200031462A464346BDE8F09F202A04DB203AA7
:1002300021FA02F00021704721FA02F3D040C2F106
:100240002002914008431946704740EA01039B078A
:1002500003D009E008C9121F08C0042AFAD203E03B
:1002600011F8013B00F8013B521EF9D27047D2B29F
:1002700001E000F8012B491EFBD270470022F6E78F
:1002800010B513460A4604461946FFF7F0FF20460C
:1002900010BD421C10F8011B0029FBD1801A7047C9
:1002A00030B504460020034600E05B1C934203D2B5
:1002B000E05CCD5C401BF8D030BD30B50B4601464C
:1002C00000202022012409E021FA02F59D4205D3F5
:1002D00003FA02F5491B04FA02F52844151EA2F19F
:1002E0000102F1DC30BD202A04DB203A00FA02F1E1
:1002F000002070479140C2F1200320FA03F3194314
:10030000904070472DE9FE4F804681EA0300C00F00
:100310000C46009021F0004123F00045B8EB0200AC
:10032000A94105D24046214690461C460B4602464E
:1003300023F00040104347D0270DC7F30A00C3F352
:100340000A510290401A019040286BDAC3F313005F
:1003500040F4801B0098924620B10023D2EB030AA0
:1003600063EB0B0B01985946C0F140025046FFF772
:10037000BAFF06460D4650465946019A00F08CF9E0
:1003800010EB08006141002487EA115284EAE77308
:100390001A4340D0009A62B3019A012A4FEA0752E9
:1003A00015DC001B61EB02014FF0004202EA07522C
:1003B000CDE90042001C41F5801132462B4600F089
:1003C0008CF903B0BDE8F08F40462146F9E7001BE9
:1003D00061EB0201001C41F5801300185B412018FD
:1003E000A2F5001747EB030140EAD570B6196D413D
:1003F00011E06D084FEA360645EAC0754FEA07522C
:10040000001B61EB0201001C41F5801149084FEA15
:1004100030000019514132462B4603B0BDE8F04F81
:1004200000F04CB90098012240000023D0EB0202FA
:1004300063EBE073009821464FEAE074B8EB0000EC
:1004400061EB0401E9E783F000435BE781F00041E1
:1004500058E72DE9FE4F81EA030404F0004421F03F
:10046000004100944FF0000B23F0004350EA0104D8
:100470005ED052EA03045BD0C3F30A54C1F30A55B9
:100480002C44A4F2F3340194A0FB0254C1F31301F1
:1004900041F48011C3F3130343F4801301FB0244BE
:1004A00000FB034E840A970A44EA815447EA8357C3
:1004B000A4FB076802958D0A05FB07854FEA932C7C
:1004C00004FB0C542705029D4FEA065847EA1637ED
:1004D000B5EB08056EEB070C870E920E47EA811705
:1004E00042EA8312A7FB0201B6EB0B0164EB0004A6
:1004F0002B0D43EA0C335E1844EB1C50DA46514690
:10050000E7FB0201C5F313044FEA0B3343EA14532C
:100510004FEA0432019C43EA0603A4F10C0402945E
:10052000009CCDE900B400F0D8F803B0BDE8F08F2E
:1005300000200146F9E72DE9F04D81EA030404F0BB
:10054000004B21F0004514464FF0000A23F0004113
:1005500050EA050220D054EA01021DD0C5F30A5723
:100560000246C5F31303C1F31300C1F30A5640F466
:10057000801543F48013A7EB0608101BD64608F23B
:10058000FD3873EB050002D308F1010801E0921871
:100590005B41B8F1000F03DA00200146BDE8F08DA1
:1005A00000204FF48011064684460EE0171B73EBC3
:1005B000050705D3121B63EB050306434CEA010C48
:1005C00049084FEA300092185B4150EA0107EDD12B
:1005D00052EA030012D082EA040083EA05010843CC
:1005E00005D0101BAB4106D20122002306E00022F9
:1005F0004FF0004302E06FF0010253101AEB0600C7
:100600004CEB085110EB0A0041EB0B01BDE8F04D3B
:1006100000F054B8C1F30A52C1F3130140F2FF33A2
:1006200041F480119A4202DA00200146704740F2FC
:1006300033439A42A2F2334202DC5242FFF7F5BD45
:10064000FFF751BE30B5041E71F1000404DB4FF01A
:100650000044404264EB0101141E73F1000405DB09
:100660001C464FF00043524263EB0403994208BF1B
:10067000904230BD064C074D06E0E06840F00103B3
:1006800094E8070098471034AC42F6D3FFF780FD9A
:10069000F0C3000810C40008202A06DBCB17203A5C
:1006A00041FA02F043EAE07306E041FA02F3D04077
:1006B000C2F12002914008431946704710B5141E3C
:1006C00073F1000408DA401C41F1000192185B410B
:1006D0001A4301D120F0010010BD2DE9F04D9246E2
:1006E0009B4611B1B1FA81F202E0B0FA80F22032F9
:1006F0009046FFF7F8FD04460F4640EA0A0041EA3B
:100700000B0153465A46084313D0114653EA0100E1
:1007100019D0C8F140025046FFF787FD05460E4646
:10072000504659464246FFF7DEFD084305D00120FA
:1007300004E020463946BDE8F08D0020054346EA36
:10074000E0762C4337430A986305E40AA0EB0800DF
:100750000022FD0A44EA47540A3002D5002001462F
:10076000E9E7010510196941DDE90845001969410A
:10077000BDE8F04DA2E770B58C1810F8015B15F0DC
:10078000070301D110F8013B2A1106D110F8012B03
:1007900003E010F8016B01F8016B5B1EF9D12B0728
:1007A00005D40023521E0DD401F8013BFAE710F8DE
:1007B000013BCB1A921C03E013F8015B01F8015BCB
:1007C000521EF9D5A142D8D3002070BD10B500202B
:1007D000054908700021054800F040F80449034825
:1007E00000F022F810BD000009000020B8640240AB
:1007F000008000280246094B9A4201D2084801E0D5
:100800000648103801F000531BB1064B0B40C36083
:1008100002E0044B0B40836070470000106402400C
:10082000006002407D0F7D0F0246094B9A4201D2C3
:10083000084801E00648103801F000531BB1064B90
:100840000B40C36002E0044B0B4083607047000024
:1008500010640240006002407D0F7D0F21B10268EC
:1008600042F00102026003E0026822F0010202602D
:1008700070470000016821F0010101600021016062
:1008800041608160C1600161212141614A49884222
:1008900004D13D21484A103A91608CE04649183114
:1008A000884205D14FF47461434A103A916082E066
:1008B00041493031884205D14FF474113E4A103A13
:1008C000916078E03C494831884205D14FF074612D
:1008D000394A103A91606EE037496031884204D15C
:1008E0003649354A103AD16065E03349783188425B
:1008F00004D13349304A103AD1605CE02E4990313E
:10090000884204D12F492C4A103AD16053E02A4939
:10091000A831884205D14FF03D51274A103AD160A5
:1009200049E02949884204D13D21274A083A11600B
:1009300041E025491831884205D14FF47461224ABB
:10094000083A116037E020493031884205D14FF430
:1009500074111D4A083A11602DE01B494831884244
:1009600005D14FF07461184A083A116023E0164926
:100970006031884204D11149134A121F11601AE0F4
:1009800011497831884204D10D490F4A121F116074
:1009900011E00D499031884204D10A490A4A121FD8
:1009A000116008E00849A831884204D14FF03D5158
:1009B000054A121F11607047106002403D00002080
:1009C000400F002000003D201064024001464868AE
:1009D00080B2704710B501F080034BB122B143697A
:1009E00043F08003436103E0436923F080034361E4
:1009F00080290BD02AB1036801F01E042343036051
:100A000004E0036801F01E04A343036010BD00006E
:100A100010B500220268134B1A40CC680B682343C0
:100A20004C6923438C692343CC6923430C6A2343D9
:100A30004C6A23438C6A23434C6B23438C6B2343C4
:100A40001A430260426922F00702D1E90B342343C2
:100A50001A4342610B6943604B6883608B68C360D3
:100A600010BD00003F801CF00021016041608160EA
:100A7000C160016141618161C16101624162816264
:100A8000C162016341638163704700000FB470B5B8
:100A900000BF0A4800780128FBD005AD2B464FF473
:100AA00080710748049A00F075FD04460025A0B245
:100AB00009F076FF70BC5DF814FB0000090000200F
:100AC000EC0500200160002303714371C280704770
:100AD000F0B50A4600210023002400BF3DE00125B7
:100AE00005FA01F3156805EA03049C4234D1056850
:100AF0004F000326BE40B543056015794E00B54052
:100B00000668354305601579012D02D01579022D4F
:100B100016D185684F000326BE40B54385605579E0
:100B20004E00B540866835438560456801268E4095
:100B3000B5434560456896798E40B6B23543456009
:100B4000C5684F000326BE40B543C560D5794E0049
:100B5000B540C6683543C560491C1029BFD3F0BDF8
:100B6000F0B5002300244D07ED0E02FA05F3CE1078
:100B700000F1200555F826504E07F70E0F26BE400F
:100B8000B543CF1000F1200646F82750CE1000F1F3
:100B9000200555F8265045EA0304CE1000F1200543
:100BA00045F82640F0BD01837047000070B5002174
:100BB00000230F22C4781CB3174C246804F4E064AB
:100BC000C4F5E064C4F30721C1F10404E3B20A41AF
:100BD00044789C40E1B28478144021430C07210EF4
:100BE0000E4C05786155047804F01F050124AC40D3
:100BF00005786D11AD0005F1E025C5F8004109E06B
:100C0000047804F01F050124AC40054D06787611E8
:100C100045F8264070BD00000CED00E000E400E067
:100C200080E100E002490143024A11607047000080
:100C30000000FA050CED00E070B505460E4610A068
:100C4000FFF724FF31460FA0FFF720FF002411E03B
:100C5000E11704EBD1614911A4EB41111F2904D024
:100C6000295D0BA0FFF712FF03E0295D0AA0FFF743
:100C70000DFF641CB442EBDB08A0FFF707FF70BD5B
:100C80000A0000006C656E203D2025640A0000000B
:100C90002530327800000000253032780A0D00003F
:100CA00070B505460E46002411E0E11704EBD16152
:100CB0004911A4EB41111F2904D0295D07A0FFF7BA
:100CC000E5FE03E0295D06A0FFF7E0FE641CB442E8
:100CD000EBDB04A0FFF7DAFE70BD00002563000027
:100CE00025630A000A00000029B1064A126802437F
:100CF000044B1A6004E0034A12688243014B1A60F5
:100D0000704700003038024029B1064A1268024399
:100D1000044B1A6004E0034A12688243014B1A60D4
:100D20007047000044380240F0B500210022002442
:100D3000022500260223324F3F6807F00C0121B143
:100D4000042905D0082937D105E02E4F076036E089
:100D50002D4F076033E02A4F3F1F3F68C7F380568F
:100D6000274F3F1F3F6807F03F036EB1264FB7FB89
:100D7000F3F7DFF88CC0ACF1040CDCF800C0CCF366
:100D8000881C07FB0CF40CE01E4FB7FBF3F7DFF8F1
:100D900070C0ACF1040CDCF800C0CCF3881C07FB7D
:100DA0000CF4174F3F1F3F68C7F301477F1C7D00BE
:100DB000B4FBF5F7076002E0124F076000BF00BF09
:100DC0000F4F3F6807F0F0010909104F7A5C076880
:100DD000D74047600A4F3F6807F4E051890A0B4F3C
:100DE0007A5C4768D7408760054F3F6807F46041E9
:100DF000490B064F7A5C4768D740C760F0BD0000DA
:100E0000083802400024F40040787D01BC04002032
:100E100070B504460D46A86E60B9402105F1280062
:100E2000FFF72CFA4FF00040A862696A2966296A28
:100E3000696613E0A86E382804D8696A2966296AA9
:100E400069660BE0284609F05FF9382105F12800B2
:100E5000FFF714FA696A2966296A6966284609F063
:100E600053F92868000E04F8010B2868000C04F8F8
:100E7000010B2888000A04F8010B287804F8010BFC
:100E80006868000E04F8010B6868000C04F8010B98
:100E9000A888000A04F8010B287904F8010BA86857
:100EA000000E04F8010BA868000C04F8010B288957
:100EB000000A04F8010B287A04F8010BE868000E18
:100EC00004F8010BE868000C04F8010BA889000A7B
:100ED00004F8010B287B04F8010B2869000E04F8C4
:100EE000010B2869000C04F8010B288A000A04F899
:100EF000010B287C04F8010B6869000E04F8010B53
:100F00006869000C04F8010BA88A000A04F8010BB8
:100F1000287D04F8010BA869000E04F8010BA869EC
:100F2000000C04F8010B288B000A04F8010B287E42
:100F300004F8010BE869000E04F8010BE869000CE5
:100F400004F8010BA88B000A04F8010B287F04F8B1
:100F5000010B70BD0A4901600A4941600A4981607C
:100F60000A49C1600A4901610A4941610A4981612E
:100F70000A49C16100210162416281667047000037
:100F80006F168073B9B21449D742241700068ADA63
:100F9000BC306FA9AA3831164DEE8DE34E0EFBB072
:100FA0002DE9F05F0546894616460EB9BDE8F09F6B
:100FB000286A00EBC608286A404502D9686A401CC6
:100FC0006862686A00EB56706862C5F820804C461B
:100FD000C3E020780006617840EA0140A17840EA49
:100FE0000120E1780843A862241D2078000661787A
:100FF00040EA0140A17840EA0120E1780843E86234
:10100000241D20780006617840EA0140A17840EA7A
:101010000120E17808432863241D207800066178C8
:1010200040EA0140A17840EA0120E1780843686382
:10103000241D20780006617840EA0140A17840EA4A
:101040000120E1780843A863241D20780006617818
:1010500040EA0140A17840EA0120E1780843E863D2
:10106000241D20780006617840EA0140A17840EA1A
:101070000120E17808432864241D20780006617867
:1010800040EA0140A17840EA0120E1780843686421
:10109000241D20780006617840EA0140A17840EAEA
:1010A0000120E1780843A864241D207800066178B7
:1010B00040EA0140A17840EA0120E1780843E86471
:1010C000241D20780006617840EA0140A17840EABA
:1010D0000120E17808432865241D20780006617806
:1010E00040EA0140A17840EA0120E17808436865C0
:1010F000241D20780006617840EA0140A17840EA8A
:101100000120E1780843A865241D20780006617855
:1011100040EA0140A17840EA0120E1780843E8650F
:10112000241D20780006617840EA0140A17840EA59
:101130000120E17808432866241D207800066178A4
:1011400040EA0140A17840EA0120E178084368665E
:10115000241D284608F0D8FF403E402EBFF439AF8A
:10116000002E58D0402105F12800FFF787F8701CA9
:10117000A8664FEA960A06F0030B00270FE02078D6
:101180000006617840EA0140A17840EA0120E17858
:10119000084305F1280141F82700241D7F1C57450D
:1011A000EDDBBBF1000F09D0BBF1010F0DD0BBF19E
:1011B000020F14D0BBF1030F2CD11CE04FF0004103
:1011C00005F1280040F8271024E020784FF40001B2
:1011D00041EA006105F1280040F827101AE0207864
:1011E0000006617840EA014040F4004105F1280022
:1011F00040F827100EE020780006617840EA0140B0
:10120000A17840EA012040F0800105F1280040F873
:10121000271000BF00BF00BFC8E600000CB50020CB
:10122000019000903448006840F4803032490860F2
:1012300000BF3148006800F4003000900198401C65
:101240000190009818B90198B0F5A04FF1D12A4843
:10125000006800F4003010B10120009001E000208F
:1012600000900098012846D123484030006840F0A3
:1012700080502149403108602048006840F44040D7
:101280001E4908601C48083000681B490831086086
:101290000846006840F4004008600846006840F4D2
:1012A000A05008601648091F0860081F006840F039
:1012B0008070091F086000BF0F48006800F00070D0
:1012C0000028F9D040F205700E4908600A4808303D
:1012D000006820F0030008490831086008460068EB
:1012E00040F00200086000BF03480830006800F0CA
:1012F0000C000828F8D10CBD0038024000700040F6
:1013000019544007003C0240042808D14FF0E02166
:10131000096941F004014FF0E022116107E04FF04C
:10132000E021096921F004014FF0E02211617047CA
:101330007047000010B51548006840F4700013496C
:1013400008601348006840F001001149086000205F
:101350000F49083108600E4800680E4908400C49E2
:1013600008600D48091D0860081F006820F48020EF
:10137000091F0860002006490C310860FFF74EFF86
:101380004FF0006001498039086010BD88ED00E031
:1013900000380240FFFFF6FE1030002410B540F286
:1013A0002441084800F02BF858B10748FFF70EFB1E
:1013B000404206490871034800F0DAF80120044968
:1013C000087010BD00100140886402400000002039
:1013D0000800002021B1828942F40052828104E099
:1013E00082894DF6FF731A40828170471AB1838A51
:1013F0000B43838202E0838A8B438382704770B5FC
:101400000246002400230025002040F66A16B1425F
:1014100000D100BFC1F3421501F01F03012606FAF7
:1014200003F3012D02D19689334006E0022D02D14B
:10143000168A334001E0968A33400C12012606FAE0
:1014400004F41688344013B10CB1012000E00020F0
:1014500070BDF0B50346002400260025002040F6AC
:101460006A17B94200D100BF1846C1F3421401F017
:101470001F06012707FA06F5012C01D10C3004E004
:10148000022C01D1103000E014301AB107682F434C
:10149000076002E00768AF430760F0BD2DE9FF4732
:1014A00005460E460024A14600BFA046B08900B103
:1014B00000BF2C8A24F44054F08804432C82AC8969
:1014C00041F20C608443B088318908437189084334
:1014D0000443AC81AC8A24F44074B0890443AC82E8
:1014E0006846FFF721FC2048854202D01F4885420C
:1014F00002D1DDF80C9001E0DDF80890A88900F435
:10150000004040B109EBC90000EB09103168490007
:10151000B0FBF1F707E009EBC90000EB09103168F7
:101520008900B0FBF1F76420B7FBF0F0040120095B
:10153000642101FB1078A88900F4004040B13220FA
:1015400000EBC800B0FBF1F000F00700044308E036
:10155000322000EB08106421B0FBF1F000F00F0026
:1015600004432C81BDE8FF870010014000140140B6
:1015700001468888C0F3080070474FF41651016097
:1015800000218180C18001810C2141810021818164
:10159000704700007CB5044600201D461646002911
:1015A0000BD0491ECDE90041044B6A46294630461E
:1015B00000F0ECF8009A002111707CBDBB1E000801
:1015C00010B5002804DB0A07130E054A135406E081
:1015D0000A07140E034A00F00F031B1FD45410BD5A
:1015E00000E400E018ED00E002E008C8121F08C1A6
:1015F000002AFAD170477047002001E001C1121F94
:10160000002AFBD1704700002DE9FF5F82B0002166
:10161000DDE90430020DDDF840B0034318D044F694
:101620001050A2F2FF3242431514119801281FD026
:10163000A5EB0B00401C5FEA000A4FF000064E4F7E
:10164000DFF83891B046504615D5CAF1000413E0D2
:10165000119801244AA3012801D16FEA0B010298D5
:10166000119AC0E90031C0E9024206B0BDE8F09F1E
:10167000CBF10000DFE704460021404A491842EB65
:101680000450CDE9001012E0E00707D032463B4697
:1016900040464946FEF7DDFE8046894632463B46D7
:1016A00010461946FEF7D5FE06460F466410002C7C
:1016B000EAD1DDE90401DDE90023BAF1000F06DA21
:1016C000FEF7C7FE42464B46FEF7C3FE05E0FEF7B7
:1016D00032FF42464B46FEF72EFF04460E460022DE
:1016E000284BFEF7AFFF03D84FF0FF30014607E06D
:1016F0000022254B20463146FEF704FEFEF78AFF06
:10170000102409E0002C0ADB0A220023FEF75CFD0E
:10171000039B30321A55641E50EA0102F2D1641C58
:10172000039AC4F111031444119A012A03D001222F
:1017300008430DD10AE0084304D000204FF0110BFC
:10174000119072E7A3EB0B056D1E0DE05B4504DD08
:101750004FF0000205F1010504E003DA4FF000024A
:10176000A5F10105002AECD002981199C0E90231D7
:10177000C0E9004579E70000000014400000F03F98
:10178000300000000000F0430000E03F2DE9FF4F73
:1017900095B09B468946064600250FE2252877D15D
:1017A00000242746F84A0121059400E0044316F876
:1017B000013F203B01FA03F01042F7D130782A288C
:1017C00011D06FF02F033078A0F13002092A16D81B
:1017D000059A44F0020402EB820203EB4202104439
:1017E000761C0590EFE759F8042B0592002A03DADE
:1017F000504244F40054059044F00204761C3078C2
:101800002E2816D116F8010F44F004042A280DD012
:101810006FF02F023078A0F13003092B09D807EBC5
:10182000870302EB4303C718761CF3E759F8047BE0
:10183000761C30786C280FD006DC4C2817D068282E
:101840000DD06A2814D104E0742810D07A280FD162
:101850000DE044F400140AE044F4801401E044F480
:1018600040147278824202D104F58014761C761CF2
:10187000307866280BD013DC582877D009DC002894
:1018800075D04528F6D04628F4D047281AD19DE1D6
:1018900018E0632835D0642879D0652812D195E105
:1018A000702873D008DC6728F1D069286FD06E28C3
:1018B0000DD06F2806D1B5E073282CD0752875D0CF
:1018C000782874D05A46179990476D1C75E1C4F377
:1018D0000250022809D003280DD0D9F8001004289E
:1018E0000DD00D6009F1040967E1D9F80010EA177D
:1018F000C1E90052F6E7D9F800100D80F2E70D704B
:10190000F0E719F8041B8DF8001000208DF8010095
:10191000EA46012003E059F804AB4FF0FF306107BD
:101920004FF0000102D40DE008F101018846B942F0
:101930000FDA8045F8DB1AF808100029F4D108E026
:1019400008F1010188468142FADB1AF808100029E3
:10195000F6D105985B46A0EB080721463846179A52
:1019600000F094FA284400EB080507E04DE029E177
:101970000DE01AF8010B5A4617999047B8F1010883
:10198000F7D25B4621463846179A13E142E00A2215
:101990000092C4F302524FF0000A022A08D059F80C
:1019A00004CB032A4FEAEC710AD00DE029E02AE0CB
:1019B00009F1070121F00702F2E802C1914609E0AE
:1019C0000FFA8CFC4FEAEC71042A03D14FFA8CFC1D
:1019D0004FEAEC71002907DA0A460021DCF1000C1D
:1019E00061EB02012D2202E0220504D52B228DF8A5
:1019F0000420012203E0E20701D02022F7E790460D
:101A000059E00A2102E010220DE010214FF0000AF7
:101A100000910BE010224FF0000A44F00404082764
:101A2000009203E008224FF0000A0092C4F3025231
:101A3000022A05D059F804CB0021032A08D009E076
:101A400009F1070121F00702F2E802C1914605E021
:101A50001FFA8CFC042A01D10CF0FF0C4FF0000897
:101A6000220728D5702806D0009B83F0100353EA84
:101A70000A0305D00EE040228DF80420012208E080
:101A80005CEA010206D030228DF804208DF80500B2
:101A900002229046009B83F0080353EA0A030AD10E
:101AA0005CEA010201D1620705D530228DF80420DD
:101AB0004FF001087F1E582804D034A003900EA8D0
:101AC00002900DE036A0F9E753466046009AFEF713
:101AD0007BFB84460398825C0298401E0290027051
:101AE0005CEA0100F0D1029806A9081A00F1200A68
:101AF000600702D524F4803400E00127574502DD59
:101B0000A7EB0A0000E0002000EB0A010090059816
:101B10004144401A0590E00306D45B462146179ADB
:101B2000059800F0B3F90544002706E001A85A46DD
:101B3000C05D179990476D1C7F1C4745F6DBE0039D
:101B40000CD55B462146179A059800F09FF905448D
:101B500004E030205A46179990476D1C0099481EA2
:101B600000900029F5DC08E0029802995A460078B6
:101B7000491C0291179990476D1CBAF10001AAF116
:101B8000010AF1DC65E1000009280100303132333F
:101B900034353637383961626364656600000000A9
:101BA0003031323334353637383941424344454693
:101BB0000000000000F058F90544761C3078002839
:101BC0007FF4ECAD19B02846BDE8F08F620700D471
:101BD000062709F1070222F0070CFCE80223E14680
:101BE00003F000485FEA080C02D00FF2702C0DE001
:101BF0005FEA045C02D50FF2682C07E05FEAC47C60
:101C000002D00FF2602C01E0AFF2700C4FF0FF3801
:101C100023F00043CDF850C065280CD006DC4528E1
:101C200009D046281DD047283DD13DE0662818D070
:101C300067287ED138E00021112F01DB112000E060
:101C4000781CCDE9000106A90EA8FFF7DDFCDDE94F
:101C50000F010E9A03910021009207F1010A0491ED
:101C60004DE04FF000400097CDE9011006A90EA805
:101C7000FFF7CAFCDDE90F0203920E9B11990022C7
:101C8000DDF80CA00093049211B9791C00EB010A55
:101C9000B7EB0A0004D4C0F1FF3007F1010A049049
:101CA000AAEB0700019044E0012F00DA0127002190
:101CB000112F01DD112000E03846CDE9000106A911
:101CC0000EA8FFF7A1FCDDE90F010E9A0391002198
:101CD00004910092BA4621070CD40399514500DAC9
:101CE0008A46BAF1010F05DD009AAAF10101515CA3
:101CF000302908D0B84202DA10F1040F06DA0121C7
:101D0000CDE9011015E0AAF10101E9E7002805DCA1
:101D1000049901440491AAEB000102E0411C5145E1
:101D200000DD8A460499401A401C01904FF00040A3
:101D30000290200704D40198504501DBCDF80480BF
:101D400000208DF84F0002980DF14F07B0F1004FC1
:101D500025D02B200E9002984FF0020800280CDAB4
:101D6000404202902D200E9007E00A210298FEF7D3
:101D7000A4FA3031029007F8011DB8F10001A8F172
:101D80000108F2DC02980028EFD1791E0E98087045
:101D9000307800F0200040F0450007F8020D12A84E
:101DA000C01B00F107081498007800B1012000EB77
:101DB0000A01019801EBE07105984144401A401E68
:101DC0000590E00306D45B462146179A059800F07B
:101DD0005DF805441498007818B15A461799904751
:101DE0006D1CE00324D55B462146179A059800F048
:101DF0004DF805441CE00498002807DBDDE90301E9
:101E0000884203DD0098405C179901E01799302063
:101E10005A469047049805F10105401C049001982A
:101E2000401E019004D12E205A46179990476D1CF0
:101E3000BAF10001AAF1010ADDDC05E017F8010B97
:101E40005A46179990476D1CB8F10001A8F1010896
:101E5000F4DC5B462146179A0598ABE62D0000009E
:101E60002B000000200000002DE9F0410446002571
:101E70001E461746880404D405E039462020B047A2
:101E80006D1C641EF9D52846BDE8F0812DE9F041AE
:101E9000044600251E469046C80301D5302700E0C1
:101EA0002027880404D505E041463846B0476D1C1C
:101EB000641EF9D52846BDE8F0814A68002A06D09C
:101EC0000A68531C0B6010704868401E48607047D9
:101ED00070B506460C46154618480068D0F8D00183
:101EE00000B170BD15480068C069401C13490968FD
:101EF000C86112480068C06918280FDA1B210F4812
:101F00000068C2690D480068203040F822100B4874
:101F10000068D0F8E00108B105F066FA2B462246C9
:101F20000121304605F0B2F804480068C069401E3F
:101F300002490968C86100BFD3E700001000002013
:101F40002DE9F04F87B00646894617469A468C48D9
:101F50000068D0F8D00108B9002E03DA002007B0DD
:101F6000BDE8F08F26B9BAF1000F01D00020F6E7E6
:101F7000484607F095F968B9BAF1000F08D0002477
:101F800002E000203855641CB442FADB3046E6E734
:101F90000020E4E77A480068C069401C7849096875
:101FA000C86177480068C06918280FDA8D21744825
:101FB0000068C26972480068203040F822107048FA
:101FC0000068D0F8E00108B105F00EFA484604F0C8
:101FD00053FD6B4800680068002879D10421059101
:101FE000D9F8000020F0004004900498401E0490AE
:101FF000DDE9040100FB01F5D9F80410049851F85B
:1020000020804FF0000B04E00BF1010B4FEA182881
:102010006D1CB8F1000FF7D105989BFBF0F100FBA8
:1020200011BB002E0DDDB5420BDD0E2004F0FAF8D9
:1020300053480068C069401E51490968C8610020C2
:102040008DE7BAF1000F0AD0701B0390002402E064
:1020500000203855641C03988442F9DB01E000201D
:102060000390BBF1000F12D0D9F804200498411E50
:10207000049152F82080ABF1010406E0039820445B
:1020800007F800804FEA1828641E002CF6DA5C4638
:102090001AE0D9F804200498411E049152F82080D7
:1020A0000598401E06900AE003980219069810440D
:1020B00007F800804FEA18280698401E06900698F8
:1020C0000028F1DA05980444AC42E2DB4AE0FFE77D
:1020D0002B480068D0F87C11484600F084FB0025AE
:1020E00000BF27480068D0F8D00100B139E024498A
:1020F0000968D1F87C0107F0D3F830B9BAF1000FC4
:1021000002D0B54201D12CE02BE0002E0DDDB5420E
:102110000BDB0E2004F086F819480068C069401EE9
:1021200017490968C861002019E715490968D1F8FD
:102130007C2113490968D1F87C014FF4807108F0C3
:1021400083FA02900298C0B201902C4603E0601E10
:10215000385C3855641E002CF9DC019838706D1C11
:10216000BFE700BF06480068C069401E044909680F
:10217000C861BAF1000F01D03046F0E62846EEE61D
:10218000100000202DE9F04106460F463B4800684C
:10219000D0F8D00108B1BDE8F08138480068C069C6
:1021A000401C36490968C86134480068C06918286D
:1021B0000FDA142131480068C269304800682030C5
:1021C00040F822102D480068D0F8E00108B105F071
:1021D0000BF9002429490968D1F8780109F02EF992
:1021E00000BF641C25480068D0F87801046000F046
:1021F00047F8054621480068006840B91F48006854
:10220000D0F878014168601E41F820500EE01B486C
:1022100000680068B5FBF0F100FB11511748006839
:10222000D0F878014268601E42F82010134909680E
:10223000D1F87801314604F0D5FA0028D1DB0F49F6
:102240000968D1F8780104F017FC0C490968324696
:10225000D1F87801314600F079FB08490968D1F8D6
:102260007801394600F0BFFA04480068C069401E92
:1022700002490968C86100BF8DE700001000002016
:10228000F0B54E480068C06820282DDD4B48006836
:10229000D0F82C01801C49490968C1F82C01474835
:1022A0000068D0F82C01242837DA44480068D0F8B8
:1022B0002C1142480068983050F821703F4800685F
:1022C000C068A0F12001384605F068F807463B4891
:1022D0000068D0F82C01401C38490968983151F841
:1022E000200007443846F0BD34480068D0F82C017F
:1022F000401C32490968C1F82C0130480068D0F808
:102300002C01252809DA2D480068D0F82C112B481B
:102310000068983050F82100E5E700202749096857
:10232000C1F82C0100230D2427E0252C00D1002426
:1023300022480068983050F824602048006898309F
:1023400050F82300301A1D490968D1F83011451A98
:10235000B54204D2002019490968C1F83001B542DC
:1023600004D9012015490968C1F8300113480068F3
:10237000983040F823505B1C641C252BD5DB0F489C
:102380000068C068202813DD0C480068D0F89870F9
:102390000A480068C068A0F12001384604F0FEFF3A
:1023A000074606480068D0F89C00074438469AE77C
:1023B00002480068D0F8980095E70000100000205F
:1023C0002DE9FE4F06460C4691465D480068D0F860
:1023D000D00108B1BDE8FE8F59480068C069401CB3
:1023E00057490968C86156480068C06918280FDA5B
:1023F0008C2153480068C26951480068203040F879
:1024000022104F480068D0F8E00108B104F0ECFF5A
:10241000484609F013F8002E07DC49480068C069F7
:10242000401E47490968C861D4E70AE0641C761E6B
:102430003EB943480068C069401E41490968C86107
:10244000C8E720780028F1D03D48006800680028DF
:1024500052D14FF0040B96FBFBF796FBFBF00BFB06
:10246000106002904FF00008029868B17F1CC246CD
:1024700007E04FEA082814F8010B40EA08080AF1BF
:10248000010A02988245F4DBC9F800702C48006804
:102490008069B8420FDA2A480068D0F8800050B14D
:1024A000032003F0BFFE26480068C069401E24498F
:1024B0000968C8618EE7029820B17F1ED9F8040030
:1024C00040F827807D1E11E04FF0000A07E04FEA38
:1024D000082814F8010B40EA08080AF1010ADA4555
:1024E000F5DBD9F8040040F825806D1E002DEBDAED
:1024F000484604F0C1FA1AE0002515E010480068CB
:10250000D0F8D00100B111E04A464FF4807148463E
:1025100006F054FA605D0090009801904A464846E3
:10252000019902F009FF6D1CB542E7DB00BF0448CA
:102530000068C069401E02490968C86100BF49E7D8
:10254000100000202DE9F04780460C4616465E48F4
:102550000068D0F8D00108B1BDE8F0875A4800689B
:102560000068A04204D13146404600F03CF9F3E750
:1025700055480068C069401C53490968C861524801
:102580000068C06918280FDA0D224F480068C16939
:102590004D480068203040F821204B480068D0F8B2
:1025A000E00108B104F020FF404602F055FE8146EC
:1025B00045480068D0F87C11404600F014F9012726
:1025C00041480068D0F87C11012002F0F7FE00BFFE
:1025D0003D490968D1F8900108F030FF3A48006899
:1025E000D0F87811012000F0E7F8002547E0364BDD
:1025F0001B68D3F87C315B6853F82510324B1B689D
:10260000D3F88C21304B1B68D3F8780104F0ACFB75
:102610002D4B1B68D3F890212B4B1B68D3F88C11E2
:10262000294B1B68D3F89001FFF752FCDCB910214D
:10263000012004F0B3FE824623490968D1F87821CD
:1026400021490968D1F87801514604F08DFB1E49F3
:102650000968D1F878211C490968D1F878015146F8
:1026600004F082FB0AE018490968D1F8782116497C
:102670000968D1F87801214604F076FB6D1C1248F8
:102680000068D0F87C010068A842B0DC0E48006801
:10269000D0F8D00108B9002F9AD000BF00BF0A4976
:1026A0000968D1F89001314600F09DF8314648465E
:1026B00002F084FE04480068C069401E02490968AF
:1026C000C86100BF48E70000100000202DE9F04776
:1026D0000446894637480068D0F8D00110B1002080
:1026E000BDE8F08733480068C069401C314909687B
:1026F000C86130480068C06918280FDA4E212D489B
:102700000068C2692B480068203040F82210294830
:102710000068D0F8E00108B104F066FE25480068C2
:10272000D0F8DC51234800684668284604F040FD94
:1027300020480068076800201E490968C1F8800029
:102740001C490968D1F88C01494602F047FE8246CF
:10275000012018490968C1F8800016480068D0F8BF
:102760008C01006820F000481248006880694045EC
:102770000BDA032003F056FD0E480068C069401EC6
:102780000C490968C8610020AAE7304604F010FD32
:10279000084909682246D1F88C013946FFF7D2FE74
:1027A00004480068C069401E02490968C861504673
:1027B00096E700001000002070B504460D461CB9D5
:1027C000284608F03BFE70BD0026002C02DA4FF0D0
:1027D000004664422946204608F000F92868304344
:1027E000286000BFEFE72DE9F04706460D46AE42F0
:1027F00000D00DB9BDE8F0871EB9284608F01EFECE
:10280000F8E7286820F00049306820F00047D6F843
:1028100004A0D5F804803C4603E0002048F82400DA
:10282000641C4C45F9DB002404E05AF8240048F805
:102830002400641CBC42F8DB3068286000BFD9E784
:1028400070B506460C4615461D480068D0F8D00104
:1028500000B170BD1A480068C069401C1849096879
:10286000C86117480068C06918280FDA08211448A1
:102870000068C26912480068203040F822101048F1
:102880000068D0F8E00108B104F0AEFD0C48006823
:10289000D0F878112046FFF78FFF094800682B46D3
:1028A0004FF0FF31D0F87821304604F0EFFB0448B8
:1028B0000068C069401E02490968C86100BFC8E7D6
:1028C0001000002010B51D4800681D49B0FBF1F054
:1028D0001C4908700420FEF717FD184800684FF4E3
:1028E0007A71B0FBF1F4601EB0F1807F01D301205A
:1028F0000FE0601E4FF0E02148610F214FF0FF30E4
:10290000FEF75EFE00204FF0E0218861072008619D
:10291000002000B110BD0221C81EFEF751FE09487B
:10292000007800EB4001C1EBC0104FF6FF7101EAE7
:10293000C0000549088000BFECE70000CC0400207F
:1029400040420F000A0000200C0000202DE9F04F4B
:102950009FB082460D469346F8480068D0F8D001F3
:1029600010B11FB0BDE8F08FF4480068D0F878418E
:10297000F2480068C069401CF0490968C861EF4826
:102980000068C06918280FDA0621EC480068C2699F
:10299000EA480068203040F82210E8480068D0F883
:1029A000E00108B104F020FDAA4502D1072003F0A0
:1029B00039FC286810B9022003F034FCDF480068B5
:1029C000D0F8D00138B1DD480068C069401EDB494D
:1029D0000968C861C5E7DAF8000000F0004010900F
:1029E000286800F000410F91DDE90F1048400E907B
:1029F000DAF8000020F00040CAF80000286820F053
:102A000000402860DAF80000089028680790214606
:102A10005046FFF7E8FE20680690C8480068D0F8E6
:102A2000800098B1DDE90601401A401CC3490968DD
:102A3000896988420ADD032003F0F4FBBF4800687F
:102A4000C069401EBD490968C8618AE7002013902B
:102A5000DDE90710884233D10898012814D1606855
:102A6000006869680968B0FBF1F01390606800685D
:102A700069680968B0FBF1F201FB12006168086047
:102A8000204603F0F9FF1BE069680898401E51F8E2
:102A9000201062680898401E52F82000B1EB900F99
:102AA0000ED907E022462946204604F009FA139879
:102AB000401C13902946204603F094FE0028F1DACA
:102AC0002946204603F08EFE00282ADADA450CD08B
:102AD00051462046FFF787FEDAF8000028B1DAF801
:102AE000000010990843CAF800005D450DD0584613
:102AF00008F0A4FC1398DBF804100860139820B1C8
:102B00000E9840F00100CBF8000028680F990843A8
:102B100028608A480068C069401E88490968C86101
:102B20001FE7079801282ED16868224601682046D1
:102B300004F046FA14905D4509D059462046FFF747
:102B400052FEDBF800000E990843CBF80000DA458E
:102B50000DD0504608F072FC1498DAF804100860A2
:102B6000149820B1109840F00100CAF800002868BD
:102B70000F990843286071480068C069401E6F497A
:102B80000968C861EDE65D4502D0584608F056FC7C
:102B90002946284604F078FF139068480068D0F86A
:102BA00080000390002065490968C1F880006348EF
:102BB0000068006800287DD11398012804D02246BF
:102BC0002046139904F0D0F869680798401E51F820
:102BD0002000179069680798801E51F82000169011
:102BE00060680B9068680A900698461EF0E0002026
:102BF0001990701C616851F82010179881420FD10C
:102C00004FF0FF301890606850F82610179808446D
:102C100015901799159888421BD20120199018E039
:102C2000606850F826000490701C616851F820001C
:102C30000590DDE90401CDE900010023179AFDF7B5
:102C4000C3FA1890DDE91701A1FB0001049A101ADC
:102C5000159026E016991898A0FB0101CDE9040112
:102C600004981490059812901599129888420AD3E6
:102C700015991298884207D1701E616851F820108A
:102C80001498814200D30FE01898401E18901799AD
:102C900015980844159017991598884201D201207B
:102CA000199019980028D5D000BF0798301A401CF9
:102CB000099000E092E01898002876D000200D904E
:102CC000814628E01898696851F82910A0FB013165
:102CD0000D98181841F10001CDE9040104980C90F9
:102CE00005980D9061680998484451F820100C9897
:102CF000814202D20D98401C0D90616809984844A9
:102D000051F820100C98091A62680998484442F852
:102D1000201009F1010907988145D3DB701C616817
:102D200051F820100D98814235D20021701C626844
:102D300042F8201000201990814625E01000002064
:102D400061680998484451F82000696851F82910D1
:102D50000144199808441190686850F82910119896
:102D6000814201D200201990686850F8291011980A
:102D7000814201D90120199011996268099848444B
:102D800042F8201009F1010907988145D8DB18980D
:102D9000401E189009E0701C616851F820100D98D1
:102DA000091A701C626842F820100698401EB04252
:102DB00005D1189818B90698401E069007E05D45A1
:102DC00005D01898DBF80420099942F82100761EF6
:102DD0000798401EB0427FF70AAF54E113980128CC
:102DE00004D022462046139903F0BEFF6968079875
:102DF000401E51F82000179069680798801E51F80E
:102E0000200016900698461E38E1701C616851F843
:102E10002010179881420BD1BE4800680068401E00
:102E20001890606850F826101798084415901BE019
:102E3000701C616851F82000B64909680968A0FB58
:102E40000131606850F826001F1841F10008002386
:102E500041463846179AFDF7B7F91890DDE9171083
:102E6000A0FB0101381A159040E018991698A0FBB4
:102E70000178A84800680068A6490968096988427D
:102E80000AD1A4480068C26838464146CDE91A878D
:102E9000FDF7CBF912900AE09E480068D0F800C018
:102EA0006246002338464146FDF78EF91290994953
:102EB000129809680968A0FB0101381A1490159945
:102EC000129888420AD315991298884207D1701E29
:102ED000616851F820101498814200D30CE01898D2
:102EE000401E189017991598084415908948006855
:102EF000016815988142B8D800BF0798301A401C65
:102F000009901898002870D000200D90814659E053
:102F10001898696851F82910A0FB01310D981F1805
:102F200041F100087B48006800687A49096809692E
:102F300088420AD177480068C26838464146CDE9E0
:102F40001C87FDF772F90D900AE072480068D0F80E
:102F500000C06246002338464146FDF735F90D9022
:102F60006C490D9809680968A0FB0101381A0C909A
:102F700061680998484451F820100C98814213D296
:102F80000D98401C0D9061680998484451F8201034
:102F90006048006802680C98101A01446268099839
:102FA000484442F820100BE061680998484451F801
:102FB00020100C98091A62680998484442F82010B9
:102FC00009F1010907988145A2DB701C616851F87D
:102FD00020100D98814234D20021701C626842F8A2
:102FE000201000201990814624E034E0616809989F
:102FF000484451F82000696851F829100144199893
:103000000844119000201990424800680168119806
:10301000814207D8012019903E4800680168119844
:10302000401A1190119962680998484442F820109A
:1030300009F1010907988145D8DB1898401E1890BE
:1030400009E0701C616851F820100D98091A701C75
:10305000626842F820100698401EB04205D11898C8
:1030600018B90698401E069007E05D4505D01898EF
:10307000DBF80420099942F82100761E0798401ECB
:10308000B0427FF7C2AE5D4507D0DDE90601401AC8
:10309000401C0E990843CBF8000007982060284692
:1030A00003F0EAFC584603F0E7FCDA4518D0204666
:1030B00003F0E2FC1398012805D0524620461399EC
:1030C00003F07EFF03E051462046FFF78CFBDAF861
:1030D000000028B1DAF8000010990843CAF800008F
:1030E0001398012804D02A462846139903F068FF54
:1030F00028680F9908432860064903980968C1F8B1
:10310000800004480068C069401E02490968C8611F
:1031100000BF26E41000002070B505460C4605B936
:1031200070BD1E480068D0F85001012819D11B4815
:1031300000688069401C082202EB8000401E0122CA
:1031400002EB9000042202EBC0000F30012202EBE0
:1031500090006043042202EB80012846FDF78EF8C0
:103160001AE00E4800688069401C082202EB8000CB
:10317000401E012202EB900000EB4000042202EB13
:1031800080000F30012202EB90006043042202EB2A
:1031900080012846FDF772F800BFC1E7100000204B
:1031A00070B505460C4638480068D0F8D00108B123
:1031B000002070BD34480068C069401C324909686D
:1031C000C86131480068C06918280FDA5E212E48AE
:1031D0000068C2692C480068203040F822102A4854
:1031E0000068D0F8E00108B104F0FEF8A54210D163
:1031F000204600F023F924480068C069401E224997
:103200000968C8612068022801D10020D1E70220A6
:10321000CFE7206802280CD12146284601F062FC45
:1032200019480068C069401E17490968C861012033
:10323000BFE72868022808D113480068C069401E0B
:1032400011490968C8610120B3E72146284601F009
:10325000B1F858B9204600F0F1F80B480068C06991
:10326000401E09490968C8610220A2E706480068B3
:10327000C069401E04490968C8612068022801D15C
:10328000002096E7012094E7100000202DE9F04788
:1032900007460E4614461D4667480068D0F8D00120
:1032A00010B10020BDE8F087386808B1306858B91F
:1032B000072002F0B7FF60480068C069401E5E4901
:1032C0000968C8610020EDE77168786803F08AFA40
:1032D000C0B92146384601F005FC21463046FFF7CB
:1032E0005FFF2946384601F0FDFB2946304601F0D4
:1032F0009FFB51480068C069401E4F490968C8617A
:103300000120CFE74C480068D0F8A0814A48006807
:10331000D0F8A49148480068D0F8ACA14946786834
:10332000FFF761FA4A464846716804F063FF494670
:10333000484605F0DFFD404800684A46D0F838119D
:10334000484602F023FA4946484604F0FFFB62680B
:103350007168786804F036FE69686068FFF743FAC0
:103360004146B868FFF73FFA42464046B16804F06C
:1033700041FF51464046FFF736FA5246494650460D
:1033800004F0D8FE41465046FFF72DFA424641462A
:10339000404604F0CFFE62681146404604F02AFF22
:1033A000A1687068FFF71FFAD4E90112104604F013
:1033B00021FFA2681046514604F0BCFEA2681046E8
:1033C000B16804F017FF4146B868FFF70CFA4246AF
:1033D0004046B16804F0F6FD51464046FFF703FA57
:1033E00052464946504604F0A5FE41465046FFF776
:1033F000FAF942464146404604F09CFE6A6811468E
:10340000404604F0F7FEA9687068FFF7ECF9D5E9CB
:103410000112104604F0EEFEAA681046514604F070
:1034200089FEAA681046B16804F0CCFD0120206036
:10343000286000BF36E700001000002001B584B00E
:10344000FE480068D0F8D00108B105B000BD04986E
:103450000068022800D1F8E7F8480068D0F8500169
:1034600001287CD104988068039005F019FF30B9D9
:10347000002211461046049B01F046FEE5E7EF48A6
:103480000068D0F89801039004984068029004986E
:1034900040680190DDE9021204F04CFEE748006844
:1034A000D0F898010390E5480068D0F898010290A0
:1034B0000321039A05F01EF8E0480068D0F8540193
:1034C000002805DADD480068D0F85401404203E0E6
:1034D000DA480068D0F85401B0F1804F13D1D748D2
:1034E0000068D0F898010390D4480068D0F8C00173
:1034F0000290D2480068D0F898010190DDE90212EC
:1035000004F060FD2EE0CD480068D0F88001039003
:10351000CA480068D0F8540102900399FFF74CF9AB
:10352000C6480068D0F880010390C4480068D0F80D
:1035300080010290039904F009FBC0480068D0F8AC
:1035400098010390BD480068D0F880010290BB4804
:103550000068D0F898010190DDE9021200E09DE0DA
:1035600004F030FDB5480068D0F89001039004984D
:10357000806802900221039A04F0BCFFAF48006803
:10358000D0F898010390AD480068D0F890010290FF
:10359000AA480068D0F898010190DDE9021204F011
:1035A00059FD012809DD002211461046049B01F057
:1035B000ABFD1C2002F036FE47E7A0480068D0F8BB
:1035C000800103909D480068D0F8980102909B48C4
:1035D0000068D0F898010190DDE9021204F0AAFD1C
:1035E00096480068D0F87C010390049840680290E7
:1035F0000221039A04F07EFF90480068D0F87C0115
:1036000003908E480068D0F87C0102908B480068D7
:10361000D0F880010190DDE9021204F0EBFD87484B
:103620000068D0F88001039084480068D0F87C01DD
:103630000290049840680190DDE9021204F0DAFD7E
:103640007E480068D0F8800103907C480068D0F87C
:103650009801029079480068D0F880010190DDE976
:10366000021204F067FD0498806803900498806853
:10367000029072480068D0F880010190DDE90212E2
:1036800004F0B8FD0498406803906C480068D0F8D6
:103690007C0102900399FFF7A6F8D6E604988068AB
:1036A000039005F0FDFD30B9002211461046049B41
:1036B00001F02AFDC9E661480068D0F87C010146A6
:1036C00003900120FFF778F85C480068D0F85401B7
:1036D000002805DA59480068D0F85401404203E058
:1036E00056480068D0F85401B0F1804F7EDA534854
:1036F0000068D0F8540100B30498006801280DD187
:103700004E480068D0F8900103904C480068D0F80B
:103710007C010290039904F019FA0EE04748006812
:10372000D0F8900103900498C06802900498C06893
:103730000190DDE9021204F0FDFC40480068D0F879
:103740005401C01C00285DD13C480068D0F88401B9
:1037500003903A480068D0F89001029004984068BD
:103760000190DDE9021204F045FD34480068D0F80C
:103770009801039031480068D0F8900102900498B5
:1037800040680190DDE9021204F01CFC2B4800683F
:10379000D0F88401039029480068D0F8980102907D
:1037A00026480068D0F884010190DDE9021204F097
:1037B000C1FC22480068D0F8980103901F480068B7
:1037C000D0F8840102901D480068D0F8840101906F
:1037D000DDE9021204F0F6FB18480068D0F8980101
:1037E000039016480068D0F8840100E088E0029059
:1037F00012480068D0F898010190DDE9021204F047
:10380000E1FB0CE10D480068D0F8540148B30B48C7
:103810000068D0F88401039008480068D0F890014F
:10382000029006480068D0F890010190DDE902128C
:1038300004F080FC0148006802E000001000002055
:10384000D0F884010390FC480068D0F8540102903D
:10385000F9480068D0F884010190DDE9021204F013
:1038600049FEF5480068D0F87C0103900498406850
:103870000290049840680190DDE9021204F05AFCBD
:10388000ED480068D0F898010390EB480068D0F844
:103890007C010290E8480068D0F87C010190DDE9E5
:1038A000021204F08FFBE4480068D0F898010390FE
:1038B000E1480068D0F87C010290DF480068D0F849
:1038C00098010190DDE9021204F07CFBDA480068FF
:1038D000D0F85401002894D0D7480068D0F8980157
:1038E0000390D5480068D0F884010290D24800685F
:1038F000D0F898010190DDE9021204F063FB8EE03C
:103900000498006801280DD1CB480068D0F89001D8
:103910000390C9480068D0F87C010290039904F034
:1039200015F90EE0C4480068D0F89001039004989F
:10393000C06802900498C0680190DDE9021204F0AA
:10394000F9FBBD480068D0F884010390BA480068CC
:10395000D0F890010290B8480068D0F8900101902A
:10396000DDE9021204F0E6FBB3480068D0F88401F8
:103970000390B1480068D0F8C0010290AE480068DA
:10398000D0F884010190DDE9021204F0D3FBAA48CB
:103990000068D0F87C010390049840680290049875
:1039A00040680190DDE9021204F0C4FBA2480068FF
:1039B000D0F898010390A0480068D0F87C010290EC
:1039C0009D480068D0F87C010190DDE9021204F006
:1039D000F9FA99480068D0F8980103909648006871
:1039E000D0F87C01029094480068D0F898010190CA
:1039F000DDE9021204F0E6FA8F480068D0F8980179
:103A000003908D480068D0F8840102908A480068CD
:103A1000D0F898010190DDE9021204F0D3FA86484B
:103A20000068D0F8800103900498806802900498A0
:103A300080680190DDE9021204F07CFB7E4800689A
:103A4000D0F8840103907C480068D0F8800102908F
:103A5000049840680190DDE9021204F06BFB76489F
:103A60000068D0F88401039073480068D0F884019E
:103A7000029071480068D0F884010190DDE90212DB
:103A800004F0A0FA6C480068D0F8840103906A48FA
:103A90000068D0F88401029067480068D0F884017B
:103AA0000190DDE9021204F08DFA04984068039059
:103AB00061480068D0F8980102905F480068D0F82B
:103AC00098010190DDE9021204F034FB049840688B
:103AD000039059480068D0F8840102900498406827
:103AE0000190DDE9021204F085FB04984068039020
:103AF00051480068D0F88401029004984068019011
:103B0000DDE9021204F076FB04980068012809D16F
:103B10000498C06803900498806802900399FEF7A7
:103B200062FE0CE00498C0680390049880680290DC
:103B30000498C0680190DDE9021204F0FBFA0498D1
:103B4000C06803900498C06802900498C06801900F
:103B5000DDE9021204F036FA37480068D0F8940123
:103B6000039035480068D0F8800102903248006820
:103B7000D0F880010190DDE9021204F023FA2E480A
:103B80000068D0F8800103902B480068D0F89401B9
:103B9000029029480068D0F894010190DDE90212F2
:103BA00004F0C8FA24480068D0F880010390224845
:103BB0000068D0F8800102901F480068D0F88001AA
:103BC0000190DDE9021204F0FDF91B480068D0F80D
:103BD0008401039004984068029017480068D0F868
:103BE00084010190DDE9021204F004FB049880686E
:103BF000039011480068D0F8840102900E480068D4
:103C0000D0F898010190DDE9021204F093FA0498CB
:103C10008068039008480068D0F8800102900498FA
:103C200080680190DDE9021204F0E4FA00210498B2
:103C3000016000BF09E40000100000202DE9F04100
:103C400080460F4615461E466F480068D0F8D001E2
:103C500008B1BDE8F0816C480068C069401C6A4941
:103C60000968C86168480068C06918280FDA5D21D2
:103C700065480068C26964480068203040F8221036
:103C800061480068D0F8E00108B103F0ADFB002006
:103C90005D490968C1F84801284604F0EFFE404636
:103CA00005F0FEFA58490968C1F854015648006801
:103CB000D0F85401002805DA53480068D0F85401C0
:103CC000404203E050480068D0F85401B0F1804F02
:103CD0002ED14D480068D0F85401002828DB4A480E
:103CE0000068D0F87C114046FEF77DFD4649096822
:103CF0002A46D1F87C012946FEF728FE4248006892
:103D0000D0F87C2140480068D0F87C11284606F0A5
:103D100065FD3D490968D1F87C0105F0C1FA04460A
:103D2000B4F1804F04DA604237490968C1F85401A0
:103D300035480068D0F8C011404603F007FF384608
:103D400005F0AEFA30490968C1F858012E480068FC
:103D5000D0F85801002805DA2B480068D0F858013F
:103D6000404203E028480068D0F85801B0F1804F85
:103D70002ED125480068D0F85801002828DB2248B9
:103D80000068D0F87C113846FEF72DFD1E49096801
:103D90002A46D1F87C012946FEF7D8FD1A4800686A
:103DA000D0F87C2118480068D0F87C11284606F02D
:103DB00015FD15490968D1F87C0105F071FA044632
:103DC000B4F1804F04DA60420F490968C1F8580124
:103DD0000D480068D0F8C411384603F0B7FE022E33
:103DE00005D1002008490968C1F8500103E00648E0
:103DF0000068C0F8506104480068C069401E02496C
:103E00000968C86100BF24E7100000202DE9F74FC2
:103E1000ADF6F84D89461646A2480068D0F8D001A4
:103E200020B100200DF6045DBDE8F08F9D480068CC
:103E3000C069401C9B490968C8619A480068C0690C
:103E400018280FDA5F2197480068C2699548006812
:103E5000203040F8221093480068D0F8E00108B103
:103E600003F0C2FADDF8F80C05F01AFA70B933461F
:103E700000221146104601F047F98A480068C069DF
:103E8000401E88490968C8610020CBE78548006862
:103E9000D0F89C11DDF8F80CFEF7A5FC3146484639
:103EA00000F020FE7F490968D1F89C0105F0F8F97F
:103EB00000280CDA7B4A1268D2F89C11794A126801
:103EC000D2F89C0103F0D2FD304601F043F8754969
:103ED0000968D1F89C0105F0E3F9012808D171487F
:103EE0000068C069401E6F490968C861002099E7F1
:103EF0006C490968D1F8A0216A490968D1F89C0188
:103F0000032104F05BFD40F6A411C3A8FCF7B6F949
:103F10004FF4417102A8FCF7B1F9002410E02146EA
:103F2000C3A800F0DDFE0DF54D6141F824002146E7
:103F300002A802F005F90DF54B6141F82400641C5C
:103F4000072CECDD3046DDF8D01C00F0CBFDDDF8B1
:103F5000EC1CDDF8D00C00F0C5FDDDF8EC0CFFF733
:103F60006DFA012413E00DF54D6252F82410621E23
:103F70000DF54D6353F8220000F0B4FD0DF54D62D0
:103F800052F82410DDF8EC0CFFF70AF9641C072C3A
:103F9000E9DB0DF6E84003C8FFF702F90DF54D62C5
:103FA0000DF54B61082000F00FFF3E490968D1F87C
:103FB000A00101F0CBFD82464FF0000833460022FD
:103FC0001146104601F0A0F8AAF1010456E0354868
:103FD0000068406918B1334909684869804708207A
:103FE0000DF54F612F4ACDE900101268D2F8A011EB
:103FF0002C4A12680DF6F443D2F89C01224602F0D6
:1040000053FD0546002703E03046FFF717FA7F1CF3
:10401000DDF8F40C8742F7DB002D0CDDAB4605EB39
:10402000DB7149100DF54D6252F821003146FFF762
:10403000B7F808F10108002D0DDAC5F1000B0BEB04
:10404000DB7149100DF54D6252F82100314600F048
:10405000EFFC08F10108DDF8F40C241ADDF8F00C8F
:1040600060B1002703E03046FFF7E8F97F1CDDF878
:10407000F00C8742F7DBDDF8F00C241A012CA6DAED
:104080000821C3A8FFF748F8082102A801F074FE30
:1040900004480068C069401E02490968C86140467A
:1040A000C0E60000100000202DE9FF4FADF2F44DF6
:1040B000894692461F46DDF82865BD480068D0F85D
:1040C000D00118B10DF2045DBDE8F08FB84800686A
:1040D000C069401CB6490968C861B5480068C06934
:1040E00018280FDA6721B2480068C269B048006832
:1040F000203040F82210AE480068D0F8E00108B146
:1041000003F072F9DDF8F40405F0CAF860B932463C
:1041100039465046FFF77AFEA5480068C069401E40
:10412000A3490968C861CDE740F2D44103A8FCF770
:10413000A5F8002103A800F0D3FDCDF8E804012183
:1041400003A800F0CDFDCDF8EC04022103A800F097
:10415000C7FDCDF8E004032103A800F0C1FDCDF8B0
:10416000E404384600F036FF3846DDF8E81400F085
:10417000B9FC8F480068D0F89C115046FEF733FB1D
:104180008B490968D1F89C0105F08AF800280DDAFE
:10419000874A1268D2F89C11854A1268D2F89C01AD
:1041A00003F064FCDDF8E80400F0D4FE484600F0BB
:1041B00011FF4846DDF8EC1400F094FC7C480068E0
:1041C000D0F8A811DDF8F404FEF70DFB7849096872
:1041D000D1F8A80105F064F800280DDA744A1268D5
:1041E000D2F8A811724A1268D2F8A80103F03EFC76
:1041F000DDF8EC0400F0AEFE334600221146104616
:1042000000F082FF0DF59C620CCADDF8E814DDF8C1
:10421000EC04FFF73BF866480068D0F8A801644951
:104220000968D1F8AC11DFF888C1CDE90010DCF8DD
:1042300000C0DCF89C31DFF878C1DCF800C0DCF8A5
:10424000A021DFF86CC1DCF800C0DCF8A811DFF8B1
:1042500060C1DCF800C0DCF89C0102F003FB544AAA
:104260001268D2F8AC11524A1268D2F8A00102F0DA
:10427000B9FA002807DB4E490968D1F8A00101F01E
:1042800065FC451E06E04A490968D1F8AC0101F019
:104290005DFC451E7CE046480068406918B1444911
:1042A0000968486980473046FFF7C8F8002004468F
:1042B00083468046CDF8F0043D490968D1F89C0159
:1042C000294603F075F808B14FF0010B3849096829
:1042D000D1F8A001294603F06BF800B1012434495C
:1042E0000968D1F8A801294603F062F810B101204D
:1042F000CDF8F0042E490968D1F8AC01294603F045
:1043000057F808B14FF00108DDF8F00440452FD010
:10431000A3450ED1B8F1010F05D13146DDF8EC040B
:10432000FEF73EFF33E03146DDF8EC0400F080FBA1
:104330002DE0B8F1010F0DD1012C05D13146DDF88A
:10434000E004FEF72DFF22E03146DDF8E404FEF73D
:1043500027FF1CE0012C05D13146DDF8E40400F014
:1043600067FB14E03146DDF8E00400F061FB0EE08D
:10437000A3450CD0012C05D13146DDF8E804FEF749
:104380000FFF04E03146DDF8E80400F051FB6D1E3C
:10439000002D80DA042103A8FEF7BEFE0448006861
:1043A000C069401E02490968C86100BF8AE6000072
:1043B0001000002003B583B0FE480068D0F850011B
:1043C00001287DD1FB480068D0F89801029004983C
:1043D00080680190039880680090DDE9011203F085
:1043E00009FFF4480068D0F89001029004984068F2
:1043F0000190039840680090DDE9011203F0FAFE95
:10440000EC480068D0F89001029004F049FF90B9A0
:10441000E8480068D0F89801029004F041FF10B914
:10442000002005B000BD002211461046049B00F09C
:104430006BFE0120F5E7DF480068D0F89801029094
:10444000DC480068D0F890010190DA480068D0F8A4
:1044500098010090DDE9011203F0FCFD01280ADD5E
:10446000002211461046049B00F04EFE1C2001F075
:10447000D9FE0120D5E7CF480068D0F8800102902E
:10448000CC480068D0F898010190CA480068D0F87C
:1044900098010090DDE9011203F04CFEC548006868
:1044A000D0F87C010290039840680190C1480068F0
:1044B000D0F880010090DDE9011203F09BFE00E0DE
:1044C00053E0BC480068D0F87C0102900498406832
:1044D0000190B8480068D0F87C010090DDE9011235
:1044E00003F088FEB3480068D0F880010290B1481C
:1044F0000068D0F87C010190049840680090DDE9E4
:10450000011203F077FEAB480068D0F880010290FA
:10451000A8480068D0F898010190A6480068D0F833
:1045200080010090DDE9011203F004FE0498806828
:1045300002900498806801909E480068D0F880013D
:104540000090DDE9011203F055FE049840680290E6
:1045500098480068D0F87C0101900299FEF743F971
:1045600001210498016001205BE70398006801289D
:1045700042D090480068D0F8900102900398C0683B
:1045800001900398C0680090DDE9011203F0D2FDAC
:1045900088480068D0F87C01029086480068D0F80E
:1045A00090010190049840680090DDE9011203F049
:1045B000C1FD80480068D0F8900102900398C0685F
:1045C00001907C480068D0F890010090DDE901126C
:1045D00003F0B0FD77480068D0F898010290754864
:1045E0000068D0F890010190049880680090DDE99F
:1045F000011203F09FFD15E06E480068D0F87C01C1
:1046000002900498406801900299FEF7ECF869481E
:104610000068D0F89801029004988068019002998F
:10462000FEF7E1F80498006801280DD161480068A0
:10463000D0F8900102905F480068D0F8BC0101906A
:104640000299FEF7D0F80EE05A480068D0F89001C1
:1046500002900498C06801900498C0680090DDE959
:10466000011203F067FD53480068D0F888010290FA
:1046700050480068D0F8900101900398406800907D
:10468000DDE9011203F056FD04980068012810D0FE
:1046900048480068D0F8900102900498C0680190E2
:1046A00044480068D0F890010090DDE9011203F061
:1046B00041FD40480068D0F88C0102903D480068F8
:1046C000D0F890010190039880680090DDE9011214
:1046D00003F030FD37480068D0F87C01029035487F
:1046E0000068D0F88801019032480068D0F87C0159
:1046F0000090DDE9011203F07DFD2E480068D0F83E
:10470000980102902B480068D0F88C01019029484C
:104710000068D0F898010090DDE9011203F06AFD0D
:1047200024480068D0F87C01029004F0B9FD88B9F3
:1047300020480068D0F89801029004F0B1FD08B953
:1047400000206EE6002211461046049B00F0DCFCBF
:10475000012066E617480068D0F8900102901548DD
:104760000068D0F88801019012480068D0F88801EC
:104770000090DDE9011203F025FC0E480068D0F836
:10478000880102900B480068D0F890010190094818
:104790000068D0F87C010090DDE9011203F012FC02
:1047A00004480068D0F89001029002480068D0F8F0
:1047B0008C0101E01000002001909C480068D0F8B6
:1047C0008C010090DDE9011203F0FCFB97480068C2
:1047D000D0F88C01029095480068D0F890010190C3
:1047E00092480068D0F898010090DDE9011203F0CA
:1047F000E9FB03980068012830D00498006801287C
:104800000FD08A480068D0F8840102900398C068ED
:1048100001900498C0680090DDE9011203F08AFC61
:104820000AE082480068D0F8840102900398C068CA
:1048300001900299FDF7D7FF0498C06802907B4869
:104840000068D0F87C01019078480068D0F88401B5
:104850000090DDE9011203F06DFC1EE00498006891
:1048600001280FD00498C068029070480068D0F802
:104870007C0101900498C0680090DDE9011203F00A
:1048800059FC0AE00498C068029068480068D0F8B3
:104890007C0101900299FDF7A6FF64480068D0F8FA
:1048A0009001029061480068D0F87C0101905F4857
:1048B0000068D0F87C010090DDE9011203F03AFCB9
:1048C0005A480068D0F87C01029058480068D0F837
:1048D0009001019055480068D0F87C010090DDE916
:1048E000011203F027FC51480068D0F890010290B3
:1048F0004E480068D0F8880101904C480068D0F814
:1049000090010090DDE9011203F014FC47480068B3
:10491000D0F88801029045480068D0F898010190CD
:1049200042480068D0F898010090DDE9011203F0D8
:1049300001FC0498406802903C480068D0F890015F
:1049400001903A480068D0F888010090DDE9011232
:1049500003F050FC35480068D0F8900102900498AC
:104960004068019031480068D0F890010090DDE97E
:10497000011203F03FFC2D480068D0F8900102902E
:1049800004984068019029480068D0F89001009090
:10499000DDE9011203F02EFC24480068D0F8800104
:1049A000029022480068D0F8900101901F480068EA
:1049B000D0F898010090DDE9011203F0BBFB1B4821
:1049C0000068D0F87C01029018480068D0F88C018B
:1049D000019016480068D0F87C010090DDE90112D2
:1049E00003F0A8FB11480068D0F88C0102900F4832
:1049F0000068D0F87C0101900C480068D0F8800174
:104A00000090DDE9011203F0F5FB04988068029044
:104A100006480068D0F88C010190029903F02CF947
:104A20000021049801600120FBE400001000002038
:104A300070B504460D462A480068D0F8D00108B188
:104A4000002070BD26480068C069401C24490968E0
:104A5000C86123480068C06918280FDA6821204817
:104A60000068C2691E480068203040F822101C48C7
:104A70000068D0F8E00108B102F0B6FCAC420ED1FB
:104A80002B4600221146104600F03EFB14480068F9
:104A9000C069401E12490968C8610020D1E720683A
:104AA000022808D10E480068C069401E0C490968F8
:104AB000C8610120C5E7204600F04CFA294620468F
:104AC000FEF76EFB0646204600F044FA04480068F4
:104AD000C069401E02490968C8613046B1E700005C
:104AE0001000002070B504460D46AC4200D005B958
:104AF00070BD69686068FDF776FEA968A068FDF77B
:104B000072FE206818B9E968E068FDF76CFE20685D
:104B1000286000BFECE700002DE9F04104460E4696
:104B200015462068022808D1304606F087FC284642
:104B300006F084FC0020BDE8F0812B480068D0F826
:104B4000D00108B10020F6E727480068C069401C82
:104B500025490968C86124480068C06918280FDA27
:104B6000622121480068C2691F480068203040F86F
:104B700022101D480068D0F8E00108B102F034FCB2
:104B8000204600F027FA48B917480068C069401E5F
:104B900015490968C8614FF0FF30CCE731466068BD
:104BA00004F0A8F9104A1268D2F87C11A06804F049
:104BB000A1F9AE4206D00C490968D1F87C0129461A
:104BC000FDF711FE08490968D1F87C01022104F0C3
:104BD000EBFA074604480068C069401E02490968AC
:104BE000C8613846A7E700001000002070B50546F0
:104BF0000C4622462946284603F09CFA22462946BE
:104C0000204603F097FA35480068D0F85401002890
:104C100005DA32480068D0F85401404203E02F48DA
:104C20000068D0F85401B0F1804F0BD12B480068D8
:104C3000D0F87C2129480068D0F8C011284603F03C
:104C400079FA0AE025480068D0F87C2123480068FA
:104C5000D0F85411284603F04DFC20480068224645
:104C6000D0F87C11204603F0ADF91C480068D0F85C
:104C70005801002805DA19480068D0F85801404268
:104C800003E016480068D0F85801B0F1804F08D111
:104C9000124800682246D0F8C411204603F092F969
:104CA0001BE00E4A1268D2F87C110C4A1268D2F846
:104CB0005801FDF781FD094A1268D2F87C11074AB4
:104CC0001268D2F87C0102F041FF044800682246D5
:104CD000D0F87C11204603F075F970BD100000205B
:104CE00030B504460D4608480068D0F8D00108B138
:104CF000002030BD044800688069421E29462046D5
:104D000000F004F8F5E70000100000202DE9F0475E
:104D100005460E4617464FF0000905F0030ABAF1A2
:104D2000000F01DDCAF1040926480068D0F85001DF
:104D3000012813D1B81C082101EB8000401E01217D
:104D400001EB9000042101EBC0000F30012101EBC9
:104D50009000704309EB8000441914E0B81C08214E
:104D600001EB8000401E012101EB900000EB4000B0
:104D7000042101EB80000F30012101EB9000704312
:104D800009EB8000441904F110083A46002140461E
:104D900001F0ECF960603A460121404601F0E6F985
:104DA000A06008480068D0F85001012805D03A46B4
:104DB0000221404601F0DAF9E0600220206020463E
:104DC000BDE8F087100000202DE9F041C0B0064694
:104DD0000F4615464FF000085D480068D0F85001B6
:104DE000012802D140B0BDE8F08159480068D0F8F0
:104DF000D00108B10020F5E7402E01DD0020F1E7E9
:104E000053480068C069401C51490968C86150484E
:104E10000068C06918280FDABE214D480068C269D1
:104E20004B480068203040F8221049480068D0F80C
:104E3000E00108B102F0D8FA002419E055F8240086
:104E40000068012806D142480068D0F8BC014DF83E
:104E5000240004E055F82400C0684DF8240055F8FB
:104E600024000068022802D14FF0010802E0641C0F
:104E7000B442E3DB00BFB8F1000F11D0002404E01E
:104E800055F8240000F0A6F8641CB442F8DB304862
:104E90000068C069401E2E490968C8610120A1E769
:104EA0003A466946304603F0EFF940B928480068B1
:104EB000C069401E26490968C861002092E70024A5
:104EC0003BE055F82420D168214A1268D2F8BC0191
:104ED000FDF789FC012055F8241008601C4B1B6865
:104EE00057F8241057F82400D3F87C2103F022F956
:104EF00055F824305A68164B1B68D3F87C1155F8C6
:104F00002430586803F016F9114B1B6857F8241029
:104F1000D3F87C210E4B1B68D3F87C0103F00AF90F
:104F200055F824309A680A4B1B68D3F87C1155F861
:104F30002430986803F0FEF8641CB442C1DB0448D6
:104F40000068C069401E02490968C861012049E73C
:104F50001000002010B504461D480068D0F8D001AC
:104F600000B110BD2068022800D1FAE71848006897
:104F7000C069401C16490968C86115480068C069C5
:104F800018280FDA792112480068C26910480068B1
:104F9000203040F822100E480068D0F8E00108B137
:104FA00002F022FAA06804F07BF938B1A268114639
:104FB000074B1B68D3F8380101F082FF04480068F2
:104FC000C069401E02490968C86100BFC9E7000006
:104FD0001000002010B504464A480068D0F850017F
:104FE000012800D110BD206808B10120FAE745482A
:104FF0000068D0F8D00108B10020F3E7414800680C
:10500000C069401C3F490968C8613E480068C069E2
:1050100018280FDA75213B480068C26939480068D2
:10502000203040F8221037480068D0F8E00108B17D
:1050300002F0DAF9334A1268D2F89811314A12684C
:10504000D2F8BC01FDF7CFFB2E4B1B68D3F898219B
:105050002C4BE1681B68D3F8980102F0FBFF012894
:1050600011DD234600221146104600F04DF81C20A9
:1050700001F0D8F823480068C069401E214909683A
:10508000C8610020AEE71F4B1B68D3F87C211D4B85
:105090001B68D3F898111B4B1B68D3F8980103F0D9
:1050A00049F8184B62681B681046D3F87C1103F06E
:1050B00041F8144B1B68D3F87C21124B1B68D3F8C2
:1050C0009811104B1B68D3F87C0103F033F80D4B9B
:1050D000A2681B681046D3F87C1103F02BF8094A2C
:1050E000E1681268D2F8BC01FDF77DFB0120206069
:1050F00004480068C069401E02490968C86101206F
:1051000070E70000100000202DE9F04106460D4632
:1051100017461C464F480068D0F8D00110B1002057
:10512000BDE8F0814B480068C069401C49490968E6
:10513000C86148480068C06918280FDA61214548ED
:105140000068C26943480068203040F82210414896
:105150000068D0F8E00108B102F046F906B1C5B91F
:105160003C4A61681268D2F8BC01FDF73CFB394A41
:10517000A1681268D2F8BC01FDF735FB022020605F
:1051800034480068C069401E32490968C86101207E
:10519000C6E73046616802F0D9FC2E4A1268D2F8A0
:1051A00084116068FFF722FD4FF00008AE4219D06D
:1051B0002846A16802F0CAFC264B1B68D3F87C2164
:1051C000A168084602F0B6FF224A1268D2F884119C
:1051D000204A1268D2F87C0101F004FB10BB4FF0AA
:1051E00001081FE01B4AA1681268D2F8840103F08D
:1051F00057FA8046174A1268D2F87C11A06803F06B
:1052000079FE14490968D1F87C01022103F0CCFF32
:10521000B84207D0A26811460E4B1B68D3F838017C
:1052200001F04EFEB8F1000F0AD0012020600948BD
:105230000068C069401E07490968C86101206FE71E
:1052400004480068C069401E02490968C86100201E
:1052500066E70000100000200146086800F00040EA
:1052600008B9012070474FF0FF30FBE738B504461E
:105270008DF8000069460320ABBE204638BD000013
:1052800010B5002821D0114B0022001F196803E03F
:10529000814203D80A4649680029F9D152B11368FE
:1052A000841A9C4204D1006818441060104602E041
:1052B000506000E0186039B102680B1A934203D1C4
:1052C0000B681A4402604968416010BDE404002084
:1052D00001480068704700001000002030B5034608
:1052E000491E14480068806891FBF0F05D6855F82D
:1052F0002020104800688068012801D1104630BD88
:105300000C480068806891FBF0F500FB1514012142
:1053100005E0084800684068B2FBF0F2491CA14271
:10532000F7DD044800684068B2FBF0F500FB15208B
:10533000E5E700001000002070B506460C46154653
:105340001D480068D0F8D00100B170BD1A4800684F
:10535000C069401C18490968C86117480068C069DD
:1053600018280FDA072114480068C269124800683B
:10537000203040F8221010480068D0F8E00108B151
:1053800002F032F80C480068D0F878112046FDF79A
:1053900013FA094800682B460121D0F878213046DD
:1053A00001F074FE04480068C069401E02490968A3
:1053B000C86100BFC9E70000100000200A6802B9F8
:1053C0007047002804DA0A6842F000420A6003E0ED
:1053D0000A6822F000420A6000BFF1E72DE9FE4FA3
:1053E00083460E46E8480068D0F8D00110B100208E
:1053F000BDE8FE8FE4480068C069401CE2490968C6
:10540000C861E1480068C06918280FDA4C21DE48FD
:105410000068C269DC480068203040F82210DA4891
:105420000068D0F8E00108B101F0DEFFD64800685E
:10543000406828B1D44800684068B0F5807F0BD937
:10544000012000F0EFFED0480068C069401ECE4940
:105450000968C8610020CBE7CB480068D0F88C0011
:1054600058B9122000F0DEFEC7480068C069401E2F
:10547000C5490968C8610020BAE7584605F0DEFF53
:10548000C1480068D0F8880018B1BF48006800F52E
:10549000F476BD480068D0F8D801002862D1BA4837
:1054A0000068D0F8880038B3002500BFB649096805
:1054B000D1F89000FAF784FE0446601C00B918E0A9
:1054C00028466D1C3454B0480068D0F8C801A84282
:1054D0000BDC112000F0A6FEAB480068C069401E3E
:1054E000A9490968C861002082E70A2C01D0002C74
:1054F000DCD100BF0020705500BFA3480068D0F881
:10550000D801345C04B92CE09F48006840683C280E
:1055100002D80A2C00D124E09B480068D0F8D801BA
:10552000401C99490968C1F8D8019748006800F5FE
:10553000F4708642E1D194480068D0F8D8019249CD
:105540000968D1F8C8118842D7DB112000F06AFE43
:105550008D480068C069401E8B490968C8610020F9
:1055600046E739E08848006800F5F470864215D1B6
:1055700085480068D0F8D80183490968D1F8C81176
:1055800088420BDB112000F04DFE7F480068C069A7
:10559000401E7D490968C861002029E77A480068F3
:1055A000D0F88800C0B100250FE077490968D1F82C
:1055B0009000FAF705FE0446401C20B972480068C6
:1055C000C0F8D85107E074556D1C6F480068D0F8DA
:1055D000D801A842E9DC00BF4FF00009012001908A
:1055E0004FF0000868480068D0F8D80100281ADD9C
:1055F0006548006840683C2815D801E008F10108BA
:1056000016F808002028F9D016F808002D2804D133
:105610004FF0FF30019008F1010816F808002B2820
:1056200001D108F1010800270120009056480068C8
:10563000D0F8D801451E7DE0745D5348006840688D
:105640003C2804D950480068406840283BD1503479
:105650004D480068406840281BD1702C00DC68E091
:10566000902C02DDAB2C00DA913CB02C02DDCB2C6F
:1056700000DA973C7F2C02DD8A2C00DA4C3C7B2C34
:1056800000D13E247F2C00D13F248D2C1BD17F1CC8
:105690004FE07F2C02DD8A2C00DA803C902C02DD6A
:1056A000AB2C00DA873C384800684068102805D8E1
:1056B000B02C08DDCB2C06DAA73C04E0B02C02DDD0
:1056C000CB2C00DA8D3C304800684068A04201D9FC
:1056D000022F0BDD052000F0A5FD2B480068C069F6
:1056E000401E29490968C861002081E63FB1009841
:1056F00028B1780044FA00FA0020009019E009F17E
:10570000010987B17900C1F1060204FA02F141EA08
:105710000A0101F03F004A46594603F0FDFA7800BD
:1057200044FA00FA05E04A465946204603F0F4FAE6
:1057300000BF6D1E4545BFF67FAF57B1BAF1000FF0
:1057400007DD09F10100814602465946504603F043
:10575000E3FA0D480068D0F8D801029000200A4909
:105760000968C1F8D80159460198FFF727FE584645
:1057700001F082F904480068C069401E02490968C6
:10578000C861029834E6000010000020F8B5064613
:105790000F46144616480068C069401C1449096841
:1057A000C86113480068C06918280FDAD52110486D
:1057B0000068C2690E480068203040F822100C488A
:1057C0000068D0F8E00108B101F00EFE2346224641
:1057D00039463046009405F02DF905460448006826
:1057E000C069401E02490968C8612846F8BD00002A
:1057F000100000202DE9F041064601270020154940
:105800000968C1F8300113490968C1F82C01114831
:105810000068C0F89860012410E0C4EBC4004000A8
:10582000252190FBF1F201FB12080A48006898302C
:1058300040F828703D46F71B2E46641C252CECDBF7
:10584000002402E0FCF71CFD641CB4F57A7FF9DB50
:10585000BDE8F081100000202DE9F04781460F4699
:1058600079480068D0F8D00140B9484603F018FDE7
:1058700020B1384603F014FD012802DA0020BDE80B
:10588000F08771480068C069401C6F490968C861A9
:105890006D480068C06918280FDA03216A4800685B
:1058A000C26969480068203040F8221066480068E4
:1058B000D0F8E00108B101F097FD012662480068C8
:1058C000D0F880113846FCF78EFF5F490968D1F89F
:1058D0008001082103F068FC0446204604EBD071E7
:1058E0004910A4EB410141B957480068C069401E06
:1058F00055490968C8610020C1E7484603F0D0FC5B
:10590000002810DAE11704EB91718910A4EB8101F2
:10591000032900D10E1F4C480068D0F87C1148467E
:1059200002F0A4F806E048480068D0F87C11484628
:10593000FCF759FF6DE00FE043490968D1F87C217D
:1059400041490968D1F87C01022104F07DFE032C55
:1059500001D0052C00D176423B490968D1F87C0181
:10596000022103F021FC0028E6D0374A1268D2F861
:105970008011354A1268D2F87C0100F033FF00280C
:1059800029DA254630480068D0F87C812E48006826
:10599000D0F880012C490968C1F87C012A480068C8
:1059A000C0F8808128490968D1F88001082103F0F6
:1059B000FBFB0446EA1705EB92729210A5EB8202FC
:1059C000032A08D1E21704EB92729210A4EB820230
:1059D000032A00D176421C4B1B68D3F87C211A4B5A
:1059E0001B68D3F88011184B1B68D3F87C0101F0B9
:1059F00067FA15490968D1F87C2113490968D1F87B
:105A00007C01022104F020FE032C01D0052C00D1E2
:105A100076420D490968D1F87C0103F041FC002869
:105A200089D109480068C069401E07490968C861F2
:105A300005490968D1F8800103F032FC012801D141
:105A400030461CE700201AE7100000202DE9FF4F28
:105A50009BB0814614461F4601252022494609A8CD
:105A6000FAF7F3FB202211A81C99FAF7EEFB204667
:105A7000E11704EBD1614FEA611BE11704EBD1613F
:105A80004911A4EB411AB846002614E0280E8DF8FF
:105A90006400280C8DF86500280A8DF86600E8B2CD
:105AA0008DF867004246442109A804F015FB08F16F
:105AB00020086D1C761C5E45E8DBBAF1000F10D0A3
:105AC000280E8DF86400280C8DF86500280A8DF8E2
:105AD0006600E8B28DF8670001AA442109A804F025
